:020000040800F2
:10000000700D002065010008FF2E0008412C00083B
:10001000FD2E0008FB060008BD36000800000000A9
:10002000000000000000000000000000F3310008A4
:100030007D0B000800000000212F0008F5310008AA
:100040007F0100087F0100087F0100087F01000890
:100050007F0100087F0100087F0100087F01000880
:100060007F0100087F0100087F0100087F01000870
:100070007F0100087F0100087F0100087F01000860
:100080007F0100087F0100087F0100087F01000850
:1000900089070008950700087F0100087F01000814
:1000A0007F0100087F0100087F0100087F01000830
:1000B0007F010008CD3200087F0100087F010008A1
:1000C0007F0100087F0100087F0100087F01000810
:1000D0007F0100087F010008B13600087F01000899
:1000E0007F0100087F0100087F0100080000000078
:1000F0000000000000000000000000000000000000
:1001000000000000000000007F0100087F010008DF
:100110007F0100087F0100087F0100087F010008BF
:100120007F0100087F0100087F0100087F010008AF
:100130007F01000800000000000000007F010008AF
:100140002D080008390800087F0100087F01000819
:10015000DFF80CD000F09AFA00480047E1380008B8
:10016000700D00200648804706480047FEE7FEE77E
:10017000FEE7FEE7FEE7FEE7FEE7FEE7FEE7FEE757
:100180007932000851010008202A04DB203A21FAC4
:1001900002F00021704721FA02F3D040C2F12002A0
:1001A00091400843194670472DE9FE4F804681EA89
:1001B0000300C00F0C46009021F0004123F00045E1
:1001C000B8EB0200A94105D24046214690461C46A4
:1001D0000B46024623F00040104347D0270DC7F3DB
:1001E0000A00C3F30A510290401A019040286BDACA
:1001F000C3F3130040F4801B0098924620B1002303
:10020000D2EB030A63EB0B0B01985946C0F1400295
:10021000504600F0BDF906460D4650465946019A33
:1002200000F0C5F910EB08006141002487EA115283
:1002300084EAE7731A4340D0009A62B3019A012A14
:100240004FEA075215DC001B61EB02014FF0004240
:1002500002EA0752CDE90042001C41F58011324606
:100260002B4600F0C5F903B0BDE8F08F40462146AB
:10027000F9E7001B61EB0201001C41F58013001837
:100280005B412018A2F5001747EB030140EAD57047
:10029000B6196D4111E06D084FEA360645EAC075A2
:1002A0004FEA0752001B61EB0201001C41F580116F
:1002B00049084FEA30000019514132462B4603B03D
:1002C000BDE8F04F00F085B90098012240000023FE
:1002D000D0EB020263EBE073009821464FEAE07432
:1002E000B8EB000061EB0401E9E783F000435BE752
:1002F00081F0004158E72DE9FE4F81EA030404F044
:10030000004421F0004100944FF0000B23F0004323
:1003100050EA01045ED052EA03045BD0C3F30A54EE
:10032000C1F30A552C44A4F2F3340194A0FB025407
:10033000C1F3130141F48011C3F3130343F4801399
:1003400001FB024400FB034E840A970A44EA8154ED
:1003500047EA8357A4FB076802958D0A05FB0785CA
:100360004FEA932C04FB0C542705029D4FEA0658D4
:1003700047EA1637B5EB08056EEB070C870E920EB1
:1003800047EA811742EA8312A7FB0201B6EB0B0191
:1003900064EB00042B0D43EA0C335E1844EB1C5055
:1003A000DA465146E7FB0201C5F313044FEA0B336B
:1003B00043EA14534FEA0432019C43EA0603A4F1D2
:1003C0000C040294009CCDE900B400F011F903B0D4
:1003D000BDE8F08F00200146F9E72DE9F04D81EAF4
:1003E000030404F0004B21F0004514464FF0000ACE
:1003F00023F0004150EA050220D054EA01021DD04A
:10040000C5F30A570246C5F31303C1F31300C1F342
:100410000A5640F4801543F48013A7EB0608101B1E
:10042000D64608F2FD3873EB050002D308F1010847
:1004300001E092185B41B8F1000F03DA0020014699
:10044000BDE8F08D00204FF48011064684460EE092
:10045000171B73EB050705D3121B63EB050306435C
:100460004CEA010C49084FEA300092185B4150EA0F
:100470000107EDD152EA030012D082EA040083EAB8
:100480000501084305D0101BAB4106D20122002311
:1004900006E000224FF0004302E06FF0010253102B
:1004A0001AEB06004CEB085110EB0A0041EB0B0174
:1004B000BDE8F04D00F08DB870B521F00043034366
:1004C0000CD0C1F30A550024D5EB040564EB0403FA
:1004D000D617AD1AB34102DB0020014670BD2018CB
:1004E00041EB025170BD0EB5C10F80EAE0700844C7
:1004F000CA07002140F233438DE80E000A460B463E
:1005000000F076F803B000BD0EB540F23341029121
:100510000021CDE900110A460B4600F069F803B04E
:1005200000BD70B5C1F30A5201F000450024C1F3CB
:10053000130140F2FF3341F480119A4201DA0020A6
:1005400070BD40F233439A42A2F2334203DC52427E
:10055000FFF71AFE00E090402C43F1D0404270BDFE
:1005600030B5041E71F1000404DB4FF0004440423A
:1005700064EB0101141E73F1000405DB1C464FF00F
:100580000043524263EB0403994208BF904230BDDE
:10059000202A04DB203A00FA02F100207047914043
:1005A000C2F1200320FA03F3194390407047202A38
:1005B00006DBCB17203A41FA02F043EAE07306E08B
:1005C00041FA02F3D040C2F120029140084319469B
:1005D000704710B5141E73F1000408DA401C41F195
:1005E000000192185B411A4301D120F0010010BDB7
:1005F0002DE9F04D92469B4611B1B1FA81F202E02D
:10060000B0FA80F220329046FFF7C2FF04460F4650
:1006100040EA0A0041EA0B0153465A46084313D008
:10062000114653EA010019D0C8F140025046FFF7C5
:10063000ABFD05460E46504659464246FFF7A8FF19
:10064000084305D0012004E020463946BDE8F08D7E
:100650000020054346EAE0762C4337430A986305B9
:10066000E40AA0EB08000022FD0A44EA47540A30DD
:1006700002D500200146E9E7010510196941DDE9CD
:10068000084500196941BDE8F04DA2E7064C074D49
:1006900006E0E06840F0010394E807009847103452
:1006A000AC42F6D3FFF758FD383C0008583C000830
:1006B00070B5044600688168C943C9071BD18168C9
:1006C00021F00101816001F0C7F905460EE001F05B
:1006D000C3F9401B022809D9A06A40F01000A062AB
:1006E000E06A40F00100E062012070BD206880688F
:1006F000C043C007EBD0002070BDFEE770B51A49BB
:100700000024A1F1B0000125016340314163174984
:1007100001600321C0E901140906C1604FF4A02162
:1007200001614FF48001C0E90514C461C0E90845C6
:100730008462C46200F050FD18B132210CA002F0B6
:10074000BEFF094844380146046104604460846087
:10075000C460846105624461C5614462BDE8704063
:100760006C3800F089BB0000780100200064004074
:100770002E2E5C436F64655C4273705C6273705FC5
:1007800063616E2E63000000014800F00BBC0000A6
:10079000C8000020014800F005BC0000C80000208F
:1007A00070B51A490024A1F1D80001250163383140
:1007B0004163174901600321C0E901140906C160C2
:1007C0004FF4A02101614FF48001C0E90514C46118
:1007D000C0E908458462C46200F0FEFC18B16B21D8
:1007E0000CA002F06CFF0948503801460461046017
:1007F00044608460C460846105624461C561446290
:10080000BDE87040443800F037BB00005C010020B8
:10081000006800402E2E5C436F64655C4273705C20
:100820006273705F63616E2E63000000014800F028
:10083000B9BB000084000020014800F0B3BB0000F9
:100840008400002010B5002958D0826B4FF4D87373
:10085000046803EB0113E45814F004049460046882
:10086000E4584DD0E40854600468E35803F00203F0
:10087000D3604FF4DA73046803EB0113E45804F017
:100880000F04146111620468E358C3F30723D361B2
:100890004FF4DC73046803EB0113E4581475046827
:1008A000E458240A54750468E458240C94750468C8
:1008B000E3581B0ED3754FF4DE73046803EB01138A
:1008C000E45814760468E458240A54760468E4581A
:1008D000240C94760468E3581B0ED3760368202218
:1008E00089B11A610268536923F05003536190F88B
:1008F0003C20222A0DD0322A0BD00FE0426BA5E714
:10090000640D1460B0E7DA600268536923F00A03EB
:10091000ECE70268536923F40F4353611222012369
:10092000002990F83C1006D0522914D0622915D025
:10093000722906D114E042290DD0622907D072290C
:1009400007D080F83C3000F0CBFD002010BD3221F4
:1009500007E0522105E080F83C20F4E7222100E086
:10096000422180F83C10EEE7F0B50E4D0E4B6A6B5D
:10097000116200221C1D6F6B02F11406BE5D8654CD
:1009800059B1266846F020062660521CD2B2082AC9
:10099000F1D3686B008880B2F0BD1E6846F0200677
:1009A0001E60F2E7C80000200C6400402DE9F04111
:1009B0000E4DDDE906642F6B00223960296B8B60D8
:1009C000296BCE60296B0C6106E0835C02F1140197
:1009D0002E6B521C92B273549442F6D80A210348EB
:1009E00000F0CCFD0028F9D1BDE8F08184000020A2
:1009F0002DE9FE4F4E484F4C01882180418861808F
:100A00008088A08002F08EFAB4F904500A2695FB83
:100A1000F6F0B4F90270381AFFF765FD824695FBCF
:100A2000F6F00291FFF75FFD81468B463846FFF7EF
:100A30005AFD4FF0FF32FFF73FFD07460191884610
:100A4000B4F90000FFF74FFD04463B4A3B4B0091D1
:100A5000FFF751FC43463A46FFF747FC4A465B46E0
:100A6000FFF743FC814695FBF6F08B46FFF73BFD15
:100A7000884601993E4605460F4620462E4A304B91
:100A80000099FFF738FC32463B46FFF72EFC434601
:100A90002A46FFF72AFC2B4C05460F46B4F9020004
:100AA000FFF721FDCDE90001524604F1A000029BB1
:100AB00003F020F880468A46B4F91600FFF713FDCC
:100AC000CDE900014A465B4604F1F80003F012F854
:100AD00006468946B4F92A00FFF705FDCDE9000175
:100AE0002A463B4604F5A87003F004F804F50074A8
:100AF00005460F464FF0000B84F808B040465146BB
:100B0000FFF70FFD208030464946FFF70AFD608061
:100B100028463946FFF705FDA080A4F806B00A492B
:100B2000204602F09FFEBDE8FE4F052000F09CBE6F
:100B30006A0000207A00002083C0CAA145B6EB3FBE
:100B400045B6EBBF60070020840000201CB50021E3
:100B50006846FFF709FFB0F5806F0CD1BDF80000C3
:100B600041BA05480180BDF8021049BA4180BDF87C
:100B7000041049BA81801CBD7A0000207047000033
:100B80000E4810B5816986B041F008018161806925
:100B90000B4C00F00800049001200090019002909E
:100BA000032003906946204600F06CFE01221146A6
:100BB000204600F04BFF06B010BD000000100240C0
:100BC000000C01400E4810B5816986B041F0080163
:100BD000816180690B4C00F00800049002200090B5
:100BE000012001900290032003906946204600F006
:100BF00049FE01220221204600F028FF06B010BD68
:100C000000100240000C0140F8B50023009390F85A
:100C100024201C46012A12D0012280F824204A6890
:100C20001F26072A0DD205686F6B521E02EB820247
:100C30009640B7430E68964037436F6319E0022031
:100C4000F8BD05680D2A0AD22F6BD21F02EB820273
:100C50009640B7430E68964037432F6309E0EF6A2A
:100C60000D3A02EB82029640B7430E689640374336
:100C7000EF620A68072605680A2A0AD3EF680A3A6B
:100C800002EB42029640B7438E6896403743EF60CE
:100C900008E02F6902EB42029640B7438E68964007
:100CA00037432F610A68102A01D0112A20D1124D32
:100CB0000268AA4217D195682D0219D4956845F4A7
:100CC000000595600968102912D10C490C4A096881
:100CD000B1FBF2F101EB8101490000E0491E0091F6
:100CE0000029FBD104E0816A41F0200181620123E7
:100CF00080F824401846F8BD00240140040000207C
:100D000040420F002DE9F0414FF000060400354647
:100D10007ED0A06A002728B9E76284F824702046B4
:100D200000F07EF82046FFF7C3FCA16A01F0100135
:100D3000014304D0A06A40F01000A06268E0A16AFC
:100D400021F4885141F00201A1626268E169E3681F
:100D50000A4346EA43010A43A1684FF48076B14250
:100D600008D0012906D00021D4F814C0BCF1010F2D
:100D700002D00AE03146F7E7F3B1A36A43F020035B
:100D8000A362E36A43F00103E3622368D3F804C07B
:100D90002CF4694C4CEA010CC3F804C021688B6840
:100DA000DFF870C003EA0C0313438B60A168B14203
:100DB0000BD0012909D00CE0DFF85CC0A3690CEB73
:100DC00043330B4343F40061DFE7218A0D05A5F5AA
:100DD00080152168CB6A23F470032B43CB62216812
:100DE00089680E4B1940914208D1E762A16A21F04F
:100DF000020141F00101A162BDE8F081A06A20F08A
:100E0000020040F01000A062E06A40F00100E062E1
:100E10000120F1E7FDF7E1FF00E0FFFFFE0E1FFFFD
:100E200000B585B000210091019102910391006805
:100E30000E49884218D10E48816941F400718161E0
:100E4000816901F400710491816941F004018161BB
:100E50008069694600F0040004900220009003209D
:100E60000190044800F00EFD05B000BD00240140D3
:100E70000010024000080140F0B50B7D012404FA87
:100E800003F20368D3F800524E6A25F47C5504EB54
:100E900006242543C3F800520368D3F81C42944348
:100EA000C3F81C424FF41074CB69251DBBB903680D
:100EB000D3F80C629643C3F80C628E894B684F6975
:100EC00066F31F43066804EBC707F3510E890B68EE
:100ED0004F6966F31F43066805EBC707F351CB69FB
:100EE000012B17D10368D3F80C621643C3F80C62C8
:100EF0000E884B684F6966F31F43066804EBC7040E
:100F000033510C89CB684E6964F31F43046805EBC9
:100F1000C60563518B69002B0368D3F804420FD0D8
:100F20001443C3F804420B69002B0368D3F814423E
:100F300008D01443C3F81442096A012904D009E017
:100F40009443EEE79443F5E70168D1F81C3213436C
:100F5000C1F81C320068D0F8001221F00101C0F87D
:100F600000120020F0BD000010B500210B4800F079
:100F70005BFA28B109480068416941F0020141610A
:100F80000021074800F050FA002805D00448006806
:100F9000416941F00201416110BD00008400002060
:100FA000C80000202DE9F041044600680026C16811
:100FB0004269C1F30011C2F3C002102311B10AB19A
:100FC0005E01C360206801694269C1F30011C2F388
:100FD000801219B112B146F4806603612168486934
:100FE0004FF00105C043C0074ED18A687648904350
:100FF00023D000228B687548984320D000238F6847
:101000007348B8431DD000201A4302433CD088687F
:101010008A68C0F340008B68C2F34022C3F3000328
:101020001043184329D04A69204622F001024A6140
:1010300094F83C10122906D00AE00122DAE70123D5
:10104000DDE70120E0E701684A6922F40F424A61C6
:1010500090F83C10422908D0522908D0722908D0B3
:1010600080F83C5000F066FB09E0222102E03221CA
:1010700000E0622180F83C10F4E746F40066206846
:101080008168544A114381602068C168406911F049
:10109000030FC0F3400004D018B100212046FFF731
:1010A000D1FB20680169406911F0030FC0F3001003
:1010B00004D018B101212046FFF7C4FB206C304357
:1010C000206420688169C1F3000241694369C1F36A
:1010D0000021C3F3C0332AB121B11BB1216C41F00F
:1010E000010121648169C1F3400241694369C1F38F
:1010F0004021C3F3C0332AB121B11BB1216C41F0AF
:10110000020121648169C1F3800241694369C1F32D
:101110008021C3F3C0332AB121B11BB1216C41F04E
:1011200004012164816911F0700F08D00021426927
:101130004369C2F3C022C3F3C03311B121E00121DE
:10114000F5E7F2B1EBB1816901F0700140292FD0D0
:1011500006DC102909D020290BD030290DD123E03D
:10116000502929D0602908D12AE0216C41F00801DA
:1011700002E0216C41F010012164816921F07001CD
:101180008161206C00280DD021680420486084F81B
:101190003C502068416948F65B72914341612046AA
:1011A000FFF7E2FEBDE8F081216C41F02001E3E7AA
:1011B000216C41F04001DFE7216C41F08001DBE769
:1011C000216C41F48071D7E70100000400010008A0
:1011D00000000110090501002DE9F0474FF000085B
:1011E0000400454604D094F83C00002618B107E0FE
:1011F0000120BDE8F08784F83D60204600F086F8C5
:10120000022084F83C002068016821F0020101609E
:101210002068016841F00101016000F01DFC0746F3
:101220004FF0030904E000F017FCC01B0A2853D854
:1012300020684068C007F6D021684868C00758D0C9
:10124000A069012801D145F08005E06901282FD06F
:1012500025F04000226A012A2DD020F02000626A89
:10126000012A2BD020F01000A26A012A29D020F0F8
:101270000800E26A012A27D020F004000A6822F060
:10128000FC0202430A60D4E902010843D4E90412D3
:10129000114308436168491E08432168C8612068FA
:1012A000016821F00101016000F0D6FB054618E05D
:1012B00045F04000CEE740F02000D0E740F01000BD
:1012C000D2E740F00800D4E740F00400D6E700F091
:1012D000C3FB401B0A2804D904F83C9F0320667016
:1012E00087E720684068C007F1D120684068C007E0
:1012F00002D0B8F1000F05D02664012084F83C002C
:10130000002076E7042084F83C0071E7F0B5414BFB
:101310000068DFF8FCC0196800273F4C022503264F
:101320003E4A491C85B0604538D11960012907D172
:10133000D06940F00070D061D06900F00070049076
:101340004FF48070CDE900070120029069462046E5
:1013500000F098FA4FF40070CDE900056946039655
:10136000204600F08FFA00221146142000F0FEFB08
:10137000142000F0EFFB00221146152000F0F6FBD0
:10138000152000F0E7FB2648416821F4C041416088
:10139000416841F48041416005B0F0BDDFF884C090
:1013A0006045F9D1D06940F08060D061D0690129F1
:1013B00000F080600490196007D1D06940F000709F
:1013C000D061D06900F0007004904FF48050CDE9F6
:1013D000000769462046029700F054FA4FF4005087
:1013E000CDE9000569460396204600F04BFA00223D
:1013F0000221402000F0BAFB402000F0ABFB0022AD
:101400000221412000F0B2FB412000F0A3FBC3E722
:101410000064004008000020000C01400010024061
:10142000000001400068004030B511B1012924D00E
:101430000FE090F83C20222A27D090F83C20422A46
:1014400023D090F83C20622A1FD090F83C20722ACA
:101450001BD090F83D20012A17D0012280F83D20B2
:10146000622490F83C20722389B1122A19D0222AD2
:101470001BD0422A1CD0322214E090F83C20322AA1
:1014800003D090F83C20522ADBD1022030BD122A32
:1014900005D0322A09D0522A0AD0222202E0422262
:1014A00000E0522280F83C2004E080F83C4001E05B
:1014B00080F83C30002303640268546948F60175E3
:1014C0002C43546180F83D3000680029416904D004
:1014D00041F050014161002030BD41F00A01F9E7BF
:1014E00010B5044601681F48814210D100211E48F2
:1014F000FFF79AFF28B11C480068416941F00201DA
:101500004161BDE810401949174802F00DB918486B
:10151000814226D100211748FFF786FF28B11548E0
:101520000168486940F002004861616B0868B0F5E5
:10153000007F16D0A0F58062013A12D0521E10D062
:10154000521E0ED0521E04D0BDE810400A48FFF7CC
:10155000FDBA087D012804D1BDE81040034802F01F
:101560006DB910BD006800408400002060070020B5
:1015700000640040C80000207A0000202DE9F05FE0
:101580000E46016804468868400105D48868000159
:1015900002D48868C00070D594F83D0001280DD0B1
:1015A0004FF0010884F83D8094F83C00222808D0D0
:1015B000322808D062280ED0122005E00220BDE8B3
:1015C000F09F422000E0522084F83C0088684001EF
:1015D00003D5002507E07220F6E78868000101D5F1
:1015E000012500E002254FF4C07000EB05100A58F9
:1015F00002F001020A50216B8A68EAB323681F587F
:101600001743CA68496842EAC1010F431F50216B62
:101610000A7C02F00F020A614FF4C271226801EBEA
:101620000511535823F00F03535022685358276B6A
:101630003F693B435350216B4FF4C47303EB0513D5
:101640000A7DD1F8151042EA01222168CA50216BA7
:101650004FF4C67303EB05130A7ED1F8191042EA62
:1016600001222168CA5021680A5842F001020A503A
:1016700000F0F2F9074601E007E050E04FF0000902
:10168000DFF8A4A0DFF8A4B023E022681358CF68E5
:1016900009883B4343EA41511150B8E7701C18D008
:1016A00026B100F0D9F9C01BB04212D9032084F84A
:1016B0003C004DB1012D09D04FF400002168886035
:1016C00084F83D9003207AE78020F7E74FF400404C
:1016D000F4E78DB12068012D816812D01448884349
:1016E0000028DBD194F83C0042280DD052280DD0C0
:1016F000722812D040460AE0206881682AEA010078
:10170000EEE72BEA0100EBE7222000E0322084F82C
:101710003C0084F83D90002051E76220F7E7042068
:1017200084F83C0001204AE70100000400010008A1
:1017300000000110704700002DE9F05F90F82110C3
:101740000024022903D004218163012485E001687B
:101750000A6822F00E020A6001680A6822F001029B
:101760000A603F4E3E4FB215DFF8F4C0DFF8F0904C
:10177000DFF8ECA0DFF8E8B0DFF8E4E00168783FDC
:1017800013011502ACF1640CA9F15009AAF13C0A4D
:10179000ABF1280BAEF1140E4FF48018B14227D9EB
:1017A000B9420ED0614512D049451DD0514518D0DF
:1017B000594518D0714501D1424615E0294EB14234
:1017C00001D1012210E0274E1436B14201D110227E
:1017D0000AE0244E2836B14206D0224A3C329142D9
:1017E00001D11A4600E02A461E49091F0A602BE073
:1017F000B94213D0614517D0494522D051451DD07B
:1018000059451DD0714501D142461AE0B14202D17D
:101810004FF0807215E0134EB14201D1012210E069
:10182000104E1436B14201D110220AE00D4E283676
:10183000B14206D00B4A3C32914201D11A4600E037
:101840002A46074980394A60012180F82110002189
:1018500080F82010416B01B188472046BDE8F09F19
:10186000800002400804024031B500F0F5F8009C09
:101870000546601C00D0641C00F0EEF8401BA0423E
:10188000FAD338BD2DE9F84FDFF8A091002309F114
:10189000040A0AF1040B1C464FF00F080BF1040E6A
:1018A00001270A68A7403A40BA4272D1DFF880C1E6
:1018B0004D68A5EB0C0665452BD00DDC032D34D00F
:1018C00005DC35B3012D19D0022D2FD11BE0112DD0
:1018D00016D0122D2AD119E0B6F5881F19D006DCD2
:1018E000B6F5803F15D0B6F5801F1FD111E0B6F5D3
:1018F000001F0ED0B6F5041F18D10AE0CB6815E022
:10190000CB681B1D12E0CB6808330FE0CB680C33AB
:101910000CE08B682BB1012B4FF0080303D047611B
:1019200004E0042302E0076100E00023FF2A01D85D
:10193000064601E000F104064FEA840501D9A5F14D
:101940002005376808FA05FC27EA0C0703FA05F5B5
:1019500047EA050737604D68ED0060D5354DAE6943
:1019600046F00106AE61AD6924F0030605F00105FD
:101970000095314D7719BE68A5072D0F08FA05FCB3
:1019800026EA0C06DFF8B4C0604503D14FF0000C26
:1019900017E044E0DFF8A8C0604502D14FF0010C29
:1019A0000FE0DFF8A0C0604502D14FF0020C08E064
:1019B000DFF894C0604502D14FF0030C01E04FF016
:1019C000040C0CFA05FC4CEA060CC7F808C04D687C
:1019D000D9F80060ED034D4601D5164300E096436B
:1019E0002E604D68DAF80060AD03554601D5164308
:1019F00000E096432E604D68DBF80060ED025D4626
:101A000001D5164300E096432E604D68DEF8006075
:101A1000AD02754601D5164300E096432E60641C66
:101A2000102CFFF43DAFBDE8F88F0000000401402A
:101A300000001110001002400000014000080140A9
:101A4000000C014000100140001401400AB1016186
:101A500070470904FBE70000014800687047000078
:101A60000000002002480168491C01607047000026
:101A700000000020074810B5016841F01001016026
:101A8000032000F093F8002000F006F800F018F8AA
:101A9000002010BD0020024010B5044607484FF456
:101AA0007A710068B0FBF1F000F0C7FC002221461B
:101AB000501E00F05BF8002010BD00000400002064
:101AC000224808B5816941F001018161816901F015
:101AD00001010091C16941F08051C161C06900F00C
:101AE00080500090032000F061F8002211466FF052
:101AF0000B0000F03BF8002211466FF00A0000F0E6
:101B000035F8002211466FF0090000F02FF800228E
:101B10001146501F00F02AF800221146101F00F055
:101B200025F800221146901E00F020F800221146F0
:101B3000501E00F01BF80648416821F0E06141604A
:101B4000416841F00071416008BD00000010024092
:101B50000000014000F01F02012191404009800077
:101B600000F1E020C0F8001170470000F0B40E4B07
:101B70001B68C3F30223C3F10704042C00D9042417
:101B80001D1D072D01D2002300E0DB1E012606FAF1
:101B900004F56D1E0D409D409E40761E164045EAA0
:101BA0000601F0BC01F0ACB90CED00E0064A00F013
:101BB000070110684FF6FF03184040EA012003496F
:101BC00008431060704700000CED00E00000FA05CB
:101BD0002DE9F047DFF8348104460E46D8F80000BE
:101BE00000F00700B0420CD2D8F8001021F0070135
:101BF0003143C8F80010D8F8000000F00700B042E8
:101C000060D12078424F800705D57868A16820F020
:101C1000F000084378602078C00742D0606801284F
:101C200016D03968022816D0890700294ADA79685F
:101C300021F0030101437960FFF70EFF054660685C
:101C400041F2883101280ED00228894617D024E0BD
:101C500039688903E9E78901E7E7FFF7FDFE411BE2
:101C6000494501D916E089467868C0F3810001280A
:101C7000F3D116E0FFF7F0FE411B49450AD878681A
:101C8000C0F381000228F5D10BE0FFF7E5FE411B10
:101C9000494502D90320BDE8F087786810F00C0FA1
:101CA000F3D1D8F80010404601F00701B1420BD93A
:101CB000016821F0070131430160006800F007006E
:101CC000B04201D00120E6E72078400705D57868CA
:101CD000E16820F4E060084378602078000706D5CA
:101CE0007868216920F4605040EAC100786000F013
:101CF0003BF87968074AC1F30311515CC8400649B3
:101D000008600020FFF7C8FE0020C4E70020024062
:101D100000100240203C0008040000200148006838
:101D20007047000004000020044805490068496825
:101D3000044AC1F30221515CC840704704000020EE
:101D400000100240303C000804480549006849681A
:101D5000044AC1F3C221515CC8407047040000200E
:101D600000100240303C000810B51EA088B00FC81B
:101D70008DE80F001FA00DF1100C0FC88CE80F00AC
:101D8000204C6268204802F00C01042902D0082986
:101D900002D01E4808B010BDC2F38343D2031DF821
:101DA00003101BD5E26A04AB02F00F029A5CE36AEF
:101DB000DB030AD5E36AE46AC3F303135B1CB0FBDD
:101DC000F3F0C4F30324A41C6043B0FBF2F09DF8CD
:101DD0000D2048438A42DDD14008DBE70C484843E8
:101DE000D8E700000000040506070809000000000D
:101DF000000D00000102030405060708090A0B0C88
:101E00000D0E0F1000100240001BB70000127A00E8
:101E100000093D002DE9F84F04460078E64DC00763
:101E200047D06868C0F38100012807D06868C0F314
:101E30008100022809D16868C00306D5286880039C
:101E400037D5A06800287DD033E0A068B0F5803F8A
:101E50000BD010B1B0F5A02F11D0286820F480303D
:101E60002860286820F4802002E0286840F4803050
:101E70002860A06888B1FFF7EFFD064609E02868F2
:101E800040F480202860F0E7FFF7E6FD801B64281F
:101E900075D828688003F7D50BE0FFF7DDFD06460F
:101EA00004E0FFF7D9FD801B6428F1D8286880037F
:101EB000F7D42078C14E80074FF0010A4FF0000799
:101EC00039D5686810F00C0F07D06868C0F381003E
:101ED000022809D16868C00306D42868800714D591
:101EE000606901282ED110E06069B0B1C6F800A089
:101EF000FFF7B2FD804605E0FFF7AEFDA0EB08005E
:101F00000228C5D828688007F6D52868A16920F07E
:101F1000F80040EAC10028600DE03760FFF79CFD43
:101F2000804605E0FFF798FDA0EB08000228AFD837
:101F300028688007F6D4207800072FD5A048E169EB
:101F4000F1B100E01CE1C0F800A0FFF785FD80467C
:101F500005E0FFF781FDA0EB0800022898D8686A29
:101F60008007F6D597484FF4FA510068B0FBF1F0BE
:101F7000009000BF0098411E0091FAD20EE0B1E03F
:101F80000760FFF769FD804605E0FFF765FDA0EB00
:101F90000800022889D8686A8007F6D420784007AC
:101FA00062D5E8694FF00009C00009D4E86940F043
:101FB0008050E861E8694FF0010900F0805000901E
:101FC00081480168C90512D40168834641F48071D3
:101FD0000160FFF741FD804605E0FFF73DFDA0EB06
:101FE000080064287ED8DBF80000C005F5D520691C
:101FF00001280AD008B1052813D0286A20F0010072
:102000002862286A20F0040002E0286A40F00100FB
:102010002862206941F2883B90B1FFF71DFD8046A0
:102020000AE0286A40F004002862EEE7FFF714FD9A
:10203000A0EB0801594555D8286A8007F6D50CE071
:10204000FFF70AFD804605E0FFF706FDA0EB08015B
:10205000594547D8286A8007F6D4B9F1000F03D054
:10206000E86920F08050E861E06AE0B36968C9037C
:1020700007D56968C1F38101022902D1E96AC90360
:102080007ED4022808D0E86A20F48030E862B7667F
:10209000FFF7E2FC80463BE02868C00005D5E86A0F
:1020A000616B00F0F00088426AD1B766FFF7D4FC9C
:1020B000804605E0FFF7D0FCA0EB0800642871D84B
:1020C00028680001F6D4E86A616B20F0F00008434C
:1020D000E862E86A216B20F470600843E862C6F8A1
:1020E00068A001E05EE016E0FFF7B6FC804605E080
:1020F000FFF7B2FCA0EB0800642853D82868000161
:10210000F6D508E0FFF7A8FCA0EB0800642849D842
:1021100028680001F6D4206A98B36968C1F3810188
:10212000022947D00228376603D0FFF795FC044602
:102130003BE0FFF791FC074604E0FFF78DFCC01B76
:1021400002282FD828688001F7D4606AB0F5803F54
:1021500009D1E86A61680843E862E86AE16820F04A
:102160000F000843E862D4E909010843696821F4D3
:10217000741108436860C6F860A0FFF76DFC01E0C9
:1021800018E015E0044604E0FFF766FC001B022897
:1021900008D828688001F7D50AE0FFF75DFC001B2E
:1021A000022802D90320BDE8F88F28688001F4D402
:1021B0000020F8E70120F6E700100240000042424C
:1021C00080044242040000200070004070B504000A
:1021D00005D00025A56294F8510010B104E001205B
:1021E00070BD204600F034F8022084F851002068C9
:1021F000016821F040010160D4E901010843D4E9FC
:1022000003121143084361690843218B01F40071F3
:102210000843E1690843216A0843A16A0843216829
:102220000860A069042101EA1040616A084321683E
:1022300048602168E06A08612068C16921F4006192
:10224000C1616565012084F85100002070BD000067
:1022500000B585B0002100910191029103910068C1
:10226000124988421FD11248816941F4805181612D
:10227000816901F480510491816941F00801816113
:102280008069694600F00800049028200090022030
:102290000190032003900748FFF7F4FA06484168CD
:1022A00041F00101416005B000BD00000030014077
:1022B00000100240000C0140000001402DE9F84FE1
:1022C000044690F8500000271E4691460D4601280E
:1022D0000DD04FF0010B84F850B0FFF7BDFB8046E6
:1022E00094F85100BA46012804D0022792E0022057
:1022F000BDE8F88F002D79D0B9F1000F76D003201A
:1023000084F85100C4F854A02563A4F83490A4F8CC
:102310003690C4F838A0A4F83CA0A4F83EA0C4F8B5
:1023200044A0C4F840A0A068B0F5004F04D12068D4
:10233000016841F48041016020680168490603D4C6
:10234000016841F040010160E068B0F5006F60682D
:1023500004D020B3E08E012821D039E010B1E08E06
:10236000012818D1216835F8020BC86006E0206802
:102370008168890706D535F8021BC160E08E401ED2
:10238000E08608E086B3701C05D0FFF765FBA0EB84
:102390000800B04228D2E08E0028E8D11BE0216876
:1023A00015F8010B087306E020688168890706D5D7
:1023B00015F8011B0173E08E401EE08608E09EB117
:1023C000701C05D0FFF748FBA0EB0800B0420BD211
:1023D000E08E0028E8D13346012202212046CDF8C4
:1023E000008000F0BBFE10B1032713E011E042466D
:1023F0003146204600F0A2FE18B10127202060657A
:1024000008E0A06818B92068C16880680090606D15
:1024100000B1012784F851B084F850A0384667E72E
:102420004FF0E0210428086903D020F0040008617F
:10243000704740F00400FAE7704710B5401EB0F155
:10244000807F01D3012010BD4FF0E02460610F2197
:10245000601700F055FD0020A061072020610020DA
:1024600010BD10B5FFF7E8FF10BD7047704730B5DD
:1024700090F83C20012A20D0012380F83C30022231
:1024800080F83D200268546824F0700454600268AB
:1024900054680D682C4354600268946824F08004EA
:1024A00094600268946849680C43946080F83D30F9
:1024B000002180F83C10084630BD022030BD10B528
:1024C000040003D094F83D0010B107E0012010BDD6
:1024D000002084F83C00204600F00CF8022084F82C
:1024E0003D00211D206800F0F7FE012084F83D002A
:1024F000002010BD08B500680B49884212D10B4876
:10250000C16941F00201C161C069002200F002000E
:10251000009001211D20FFF729FBBDE808401D2088
:10252000FFF718BB08BD0000000400400010024087
:102530000168CA6842F00102CA600068016841F09F
:10254000010101600020704770B5044690F83C001E
:10255000012817D0012584F83C50022084F83D0062
:102560002068826822F0770222F47F428260086845
:10257000502836D00DDC202858D005DC80B3102838
:1025800040D150E0022070BD302852D0402839D1CF
:102590003EE060282DD070280BD0B0F5805F03D0CE
:1025A000B0F5005F2ED110E02068816821F00701AE
:1025B00009E0CB68D1E90121206800F0C9FE20685C
:1025C000816841F0770181601CE0CB68D1E901218D
:1025D000206800F0BDFE2068816841F48041F2E788
:1025E0001EE0CA684968206800F0C4FE50212068D7
:1025F00006E0CA684968206800F0CDFE60212068C6
:1026000000F0B0FE84F83D50002084F83C0070BD1E
:10261000CA684968206800F0ADFE40212068EFE7F5
:1026200000212068ECE710212068E9E720212068DC
:10263000E6E730212068E3E7704770B5044600689C
:1026400001694FF00005C943890715D4C168C94322
:10265000890711D4E91E0161012020772068806973
:102660008007204602D0FFF7E7FF04E000F098F86B
:10267000204600F096F8257720680169C94349078C
:1026800017D4C168C943490713D46FF0040101612D
:10269000022020772068806910F4407F204602D015
:1026A000FFF7CAFF04E000F07BF8204600F079F85D
:1026B000257720680169C943090716D4C168C94351
:1026C000090712D46FF00801016104202077206807
:1026D000C0698007204602D0FFF7AEFF04E000F09B
:1026E0005FF8204600F05DF8257720680169C9434E
:1026F000C90617D4C168C943C90613D46FF01001C5
:102700000161082020772068C06910F4407F2046CE
:1027100002D0FFF791FF04E000F042F8204600F0FD
:1027200040F8257720680169C943C90708D1C16805
:10273000C943C90704D1891E0161204600F032F85F
:1027400020680169C943090609D4C168C94309065B
:1027500005D46FF0800101612046FFF786FE2068F6
:102760000169C943490609D4C168C943490605D46A
:102770006FF040010161204600F028F820680169EF
:10278000C94389060BD4C168C943890607D46FF0D1
:10279000200101612046BDE87040FFF767BE70BDB3
:1027A00070477047074900680968884209D10648A0
:1027B0004188491C41800188491C01808188491C4D
:1027C00081807047340200200C0000207047000018
:1027D00038B504460068174988420FD11648016889
:1027E00008684868009001221449134800F05CF919
:1027F00020B14FF4847112A000F061FF15492068E8
:10280000884215D10C48403000680168406800904B
:102810000A4909480122491C403000F045F90028C6
:1028200006D0BDE8384040F2111105A000F047BFC6
:1028300038BD000000440040A40200201200002027
:102840002E2E5C436F64655C4273705C75736172BD
:10285000742E63000048004070B50268044610689A
:10286000D168536910F00F0F51D003F0010501F446
:10287000907635435DD0C20705D0CA0503D5E26B1B
:1028800042F00102E263420705D5DA0703D0E26BAA
:1028900042F00202E263820705D5DA0703D0E26B59
:1028A00042F00402E263020705D5DA0703D0E26BC7
:1028B00042F00802E263E26B002A34D0800604D5BD
:1028C000880602D5204600F08EFD20684069E16B45
:1028D000C0F3801001F008010143204624D000F02D
:1028E00074FD2068416949061AD5416921F040010B
:1028F0004161606BA0B11B494163606BFEF71CFF37
:10290000002810D0606B416BBDE87040084783061B
:102910000FD58B060DD52046BDE8704000F063BD95
:102920002046FFF755FF70BDFFF752FF0020E06320
:1029300070BD030606D50B0604D52046BDE87040E1
:1029400000F054BE4006F3D54806F1D5D1682046C4
:1029500021F04001D160202184F8391000F06FF996
:1029600070BD0000BB33000870B5040004D094F8BB
:102970003900002510B106E0012070BD84F8385000
:10298000204600F023F8242084F839002068C1682C
:1029900021F40051C160204600F070FD20680169FB
:1029A00021F4904101612068416921F02A014161CF
:1029B0002068C16841F40051C160E563202084F8BB
:1029C000390084F83A00002070BD000030B585B0B1
:1029D000002400940194029403942E4D01682E4823
:1029E00002220323A94227D1C16941F40031C16108
:1029F000C16901F400310491816941F004018161F0
:102A00008069264D00F0040004900420CDE9000206
:102A1000694603932846FEF735FF0820CDE90004F8
:102A2000694628460294FEF72DFF00221146262013
:102A3000FFF79CF8262029E0194DA94228D1C16949
:102A400041F48021C161C16901F48021049181694F
:102A500041F0080181618069694600F00800049036
:102A60002815CDE900020F4D03932846FEF70AFF13
:102A7000E814CDE90004694628460294FEF702FFF7
:102A8000002211462720FFF771F82720FFF762F890
:102A900005B030BD00440040001002400008014075
:102AA00000480040000C014090F83A30202B22D121
:102AB000F9B1F2B190F83830012B1CD081628285D7
:102AC000C2850021C163222280F83A2080F83810A4
:102AD0000168CA6842F48072CA6001684A6942F0BB
:102AE00001024A610068C16841F02001C160002014
:102AF00070470120704702207047000070B50446FF
:102B000000681749174D88420CD101222946164802
:102B1000FFF7CAFF18B1EE2114A000F0D0FD28780D
:102B200000F06CFA16492068884218D10D490E4809
:102B30000122491C4030FFF7B7FF18B1F8210BA064
:102B400000F0BDFD07490848FF230122491C403021
:102B500000F018F86878BDE8704000F04FBA70BD1A
:102B60000044004012000020A40200202E2E5C43EE
:102B70006F64655C4273705C75736172742E630080
:102B8000004800402DE9F843044690F839001E46FD
:102B900017460D46202850D1A5B19FB194F83800B2
:102BA00001284AD0012084F838004FF00008C4F80A
:102BB0003C80212084F83900FEF74EFFA78481462F
:102BC000E78426E00120BDE8F883E08C401EE08425
:102BD000A0684B46B0F5805F4FF000024FF08001D7
:102BE0002046009603D000F032FDE8B90DE000F079
:102BF0002EFDC8B928882168C0F308004860206904
:102C000008B16D1C05E0AD1C03E0216815F8010B4F
:102C10004860E08C0028D8D14B4600224021204655
:102C2000009600F014FD08B10320CCE7202084F8C2
:102C3000390084F838800020C5E70220C3E77047D8
:102C4000FEE7000010B5094C01202070FDF7BAFF27
:102C5000607840F001006070A41C02202070FDF735
:102C60008FFF607840F00100607010BD14000020FC
:102C70003EB500241248009401941049029401606A
:102C80000125C0E90245446105614FF460214460BB
:102C9000C161FEF737F818B12D210AA000F00FFD31
:102CA0000095CDE9015469460548FDF7ADFF0028C0
:102CB00003D0362103A000F002FD3EBD00240140F8
:102CC000740200202E2E5C436F64655C4273705C5E
:102CD0006164632E6300000030B5194885B08169D6
:102CE00041F020018161816901F020010491816935
:102CF00041F008018161816901F008010491816955
:102D000041F0040181618069002400F00400009416
:102D100001940294CDE903400A4D224650212846F1
:102D2000FEF794FE50210120CDE900100220CDE9EC
:102D3000024069462846FEF7A5FD05B030BD0000FB
:102D400000100240000C0140114810B50F4901600D
:102D50004FF48271416000218160C1604FF40072C4
:102D60000161C0E905122822C0E9072141628162A0
:102D70000A21C162FFF72AFA002805D0BDE81040F9
:102D8000432104A000F09BBC10BD000000300140B6
:102D9000DC0100202E2E5C5372635C7370692E631D
:102DA0000000000010B586B000241A480094019479
:102DB00002940394049416490594016041F61F415E
:102DC000C0E901146321C0E903148461FFF777FBB4
:102DD00018B1412110A000F072FC4FF48050009017
:102DE00069460C48FFF7B0FB18B146210AA000F075
:102DF00066FC049404A907480594FFF738FB0028F3
:102E000003D04C2104A000F05AFC06B010BD000015
:102E100000040040340200202E2E5C436F64655C89
:102E20004273705C74696D2E63000000124810B527
:102E3000104901604FF4E1314160002181600C22B2
:102E4000C160C0E904128161C161FFF78DFD18B155
:102E50004D210AA000F033FC01220D490648FFF77E
:102E600023FE002805D0BDE81040512103A000F04A
:102E700026BC10BD00440040A40200202E2E5C435E
:102E80006F64655C4273705C75736172742E63006D
:102E900012000020124810B5104901604FF4E131D2
:102EA0004160002181600C22C160C0E9041281618F
:102EB000C161FFF759FD18B164210AA000F0FFFBC2
:102EC00001220D490648FFF7EFFD002805D0BDE8B7
:102ED0001040682103A000F0F2BB10BD0048004084
:102EE000E40200202E2E5C436F64655C4273705CCC
:102EF00075736172742E630013000020FEE7704743
:102F00000907090E002806DA00F00F0000F1E020A2
:102F100080F8141D704700F1E02080F8001470471D
:102F2000704700002B482C4A017841F007010170DE
:102F30000021C0E90212294AC0E90412284AC0E966
:102F40000612284AC0E90A12274AC0E90C12C0E951
:102F500012115830254A017841F007010170002113
:102F6000C0E902121D4AC0E904121D4AC0E9061256
:102F70001C4AC0E90A121C4AC0E90C12C0E912112D
:102F80005830154A017841F0070101700021C0E96D
:102F90000212124AC0E90412114AC0E90612114A8B
:102FA000C0E90A12104AC0E90C125830104A0178E0
:102FB00041F0070101700021C0E90212C0E90411CB
:102FC000C0E906110B4AC0E90A120B4AC0E90C120B
:102FD000704700000008002000006E4000003940EB
:102FE000000034400088A3400088C340006068406F
:102FF0000000E03F00407F40000049402DE9F04FD5
:103000004C4B4D4A1E4693F800C0117836F8039F8A
:103010000C1877880025B6884FF0060E03F1180BC0
:103020004FF0FF0AE4B2BCF10B0F13D2DFE80CF053
:10303000061624343C5B7A2B374B66000124B528F6
:1030400002D0C52803D007E01C70B53101E01C7028
:10305000C5311170BDE8F08F5570FBE75B2803D0D8
:103060005C2805D01D70F7E7022018705B31F0E78F
:10307000072018705C31ECE7012806D103241C708E
:103080005870491CE5E7022801D01D7048E008246B
:103090001C705870891CDCE79870042001E098705F
:1030A000092018701470D5E751785D18491CE87034
:1030B000C9B20BEB01055170E87014709878884222
:1030C000C8D105200DE051785D18491CE870C9B2DF
:1030D0000BEB01055170E870147098788842B9D1F3
:1030E0000A201870B6E7B1FBFAFC0AFB1C118142FA
:1030F00013D1114899FA99F1801C09E0B1FBFAFC4F
:103100000AFB1C11814208D10B4899FA99F10A3047
:10311000018079BA418071BA818083F800E006E0CD
:10312000157097E7BB2801D0CC2893D11D7055703E
:10313000F6E70000300700206800002038B50B4695
:10314000009204460022802100F008F8002804D0F4
:10315000606D40F020006065032038BD2DE9F0412E
:103160001D4617460E460446DDF8188035E0681CFB
:1031700033D02DB1FEF770FCA0EB0800A8422CD391
:103180002068416821F0E00141606068B0F5827F0D
:103190000BD1A068B0F5004F02D0B0F5806F04D11C
:1031A0002068016821F040010160A06AB0F5005F6D
:1031B0000AD1206801684DF6FF7211400160206855
:1031C000016841F400510160012084F851000020A1
:1031D00084F850000320BDE8F0812068806836EA5A
:1031E000000004D00020B842C1D10020F3E7012044
:1031F000F9E7704710B5FEF735FCBDE81040FFF762
:1032000030B9000070B594B0012500242804CDE940
:1032100002040226CDE9086000950595019400019D
:10322000CDE90A046846FEF7F5FD00B1FEE70F2080
:10323000CDE90E064FF48060CDE9104002210EA8C2
:103240001294FEF7C5FC00B1FEE7FEF767FD4FF4F0
:103250007A71B0FBF1F0FFF7F0F80420FFF7E0F827
:103260000448056700221146501EFEF77FFC14B08B
:1032700070BD0000000042421048016841F00101A9
:10328000016041680E4A1140416001680D4A1140D9
:103290000160016821F480210160416821F4FE0190
:1032A0004160016821F0A05101604FF47F0181600D
:1032B0000021C1620449C003086070470010024049
:1032C0000000FFF0FFFFF6FE08ED00E00148FFF709
:1032D000B4B9000034020020F0B50268184C194D52
:1032E000194E1A4F4FF0804CA04207D0604505D0D0
:1032F000A84203D0B04201D0B84203D122F07003FB
:103300004A681A43A04207D0604505D0A84203D0BE
:10331000B04201D0B84203D122F44073CA681A43C4
:103320004B6922F08002134303608A68C2620A6814
:103330008262A04201D10969016301214161F0BDAE
:10334000002C01400004004000080040000C004038
:1033500010B5846842EA032224F47F440A432243DE
:10336000826010BD826822F070020A4342F00701B9
:103370008160704710B5046A036A23F00103036299
:10338000836923F0F00343EA021324F00A020A439C
:103390008361026210BD10B5036A23F0100303625B
:1033A0008469036A24F4704444EA023223F0A003DF
:1033B00043EA01118261016210BD10B5406A00212B
:1033C000C185C184FFF704FA10BD0168CA6822F400
:1033D0009072CA6001684A6922F001024A612021A4
:1033E00080F83A10704710B590F83A10222901D0B1
:1033F000022010BD8168B1F5805F11D001690029FC
:1034000001681FD0496801F07F03816A4A1C82620B
:103410000B70C18D491E0904090CC18518D02BE021
:103420000269816A002A0268526805D0D2B20A8015
:10343000816A491C8162ECE7C2F308020A80816A52
:10344000891CF7E74A68816A4B1C83620A70E0E7CF
:103450000168CA6822F02002CA600168CA6822F4C2
:103460008072CA6001684A6922F001024A61202123
:1034700080F83A10FFF742FB002010BD2DE9F04123
:10348000044600680169E26821F44051114301617A
:10349000A16820690143606901432068C26841F264
:1034A0000C639A430A43C26020684169A26921F40F
:1034B0004071114341614C4920686426322788429B
:1034C0003CD1FEF741FC00EBC00101EB001061684C
:1034D0008900B0FBF1F5FEF737FC00EBC00101EB12
:1034E00000106168B8468900B0FBF1F0B0FBF6F05F
:1034F0006FF01801484305EB800107EB0110B0FBAA
:10350000F6F000F0F005FEF71FFC00EBC00101EB48
:10351000001061688900B0FBF1F0B0FBF6F005EB3C
:103520000015FEF711FC00EBC00101EB0010616813
:103530008900B0FBF1F7FEF707FC3BE0FEF7F4FB78
:1035400000EBC00101EB001061688900B0FBF1F5F0
:10355000FEF7EAFB00EBC00101EB00106168B84622
:103560008900B0FBF1F0B0FBF6F06FF018014843B2
:1035700005EB800107EB0110B0FBF6F000F0F00561
:10358000FEF7D2FB00EBC00101EB0010616889007F
:10359000B0FBF1F0B0FBF6F005EB0015FEF7C4FB55
:1035A00000EBC00101EB001061688900B0FBF1F78E
:1035B000FEF7BAFB00EBC00101EB00106168890067
:1035C000B0FBF1F0B0FBF6F06FF01801484307EBE9
:1035D000800108EB0110B0FBF6F0216800F00F004D
:1035E00028448860BDE8F0810038014090F8391027
:1035F000212901D0022070478168B1F5805F016AFE
:103600000BD04A1C0262026809785160C18C491EC5
:103610000904090CC1840ED017E009880268C1F3BF
:103620000801516001690029016A02D0491C016248
:10363000ECE7891CFBE70168CA6822F08002CA60D7
:103640000068C16841F04001C160002070472DE969
:10365000F0411E46174688460446069D1CE0681C3D
:103660001AD025B1FEF7F8F9801BA84214D92068BA
:10367000C16821F4D071C1602068416921F0010165
:103680004161202084F8390084F83A00002084F851
:1036900038000320BDE8F0812068016838EA0100A5
:1036A00004D00020B842DAD00020F3E70120F9E787
:1036B0000148FFF7D1B80000A4020020FEE7FEE7B2
:1036C00002E008C8121F08C1002AFAD170477047EB
:1036D000002001E001C1121F002AFBD17047000049
:1036E0002DE9F04106461746D6E9000598460446FE
:1036F00002462B4600200B49FCF7F7FD3A464346AD
:10370000FCF7F9FDD6E902230746884620462946FC
:10371000FCF7F1FD3A464346FCF746FDC6E90201D7
:10372000BDE8F0810000F03F2DE9FC470023009345
:103730000193426B6E461362426B1288A2F50072CF
:1037400095B205EB850201EB82043A4A34F8149CE9
:103750001946D0F834C001F114071CF807707754EB
:10376000176847F020071760491CC9B20829F0D331
:103770009DF801009DF8001000EB012080B224F8B4
:10378000140C80469DF803009DF8021000EB012008
:1037900024F8120C9DF805009DF8041000EB0120A0
:1037A00024F8100C9DF8060004F80E0C54F8080CD0
:1037B000401C44F8080C012822D04846FCF7A4FE1F
:1037C00006460F464046FCF79FFE32463B46FCF756
:1037D0008CFD06460F4654F8040CFCF784FE324676
:1037E0003B46FCF7E1FCFCF79CFEA8EB090141F22B
:1037F000883244F8040C914205DDA0F5005008E041
:1038000044F8043C07E041F28832D14203DA00F583
:10381000005044F8040C54F8040CC11700EBD140DC
:103820000549401301EB450121F8020CE8B2BDE85F
:10383000FC8700000C6400401800002000210A46AC
:1038400001EB810300EB8303491C1A610729F7DDB3
:103850000349002021F81020401C0428FADD70479D
:10386000180000207FB5017A1C4C00294FF00001A0
:103870001BD004F1100230F8113002EB41051B0A95
:1038800002F8113010F81130491C6B700329F2DD79
:1038900004F140000FC88DE80F0010481030343498
:1038A00094E80E00FDF782F87FBD0C4A083230F82C
:1038B000113002EB41051B0A02F8113010F81130EB
:1038C000491C6B700329F2DD04F124000FC88DE858
:1038D0000F00024808301834E2E70000180000200A
:1038E000FEF7C8F8FFF78EFCFFF7F6F9FFF75AFA74
:1038F000FFF7A8F9FCF702FFFCF752FFFFF796FA73
:10390000FFF7C8FAFFF720FA00F03AF8002109485B
:10391000FDF78AFD00210848FDF786FD0748FEF700
:1039200007FEFFF7A5F941F28830FDF79DFFFDF78F
:103930005FF8FCE7C800002084000020340200206B
:10394000F0B500220D4DFF271646002101280FD0AB
:1039500005EBC10380B19C5CC4F1FF049C54491C7D
:10396000C9B28029F2D3521CD2B2082AEDD3F0BDDD
:1039700005EBC1039F54F2E79E54F0E724030020B7
:1039800010B5464C002240212046FEF75FF84FF468
:10399000FA70FDF769FF012240212046FEF756F834
:1039A0000021AE2000F092F80021084600F08EF8C9
:1039B0000021102000F08AF80021402000F086F855
:1039C0000021812000F082F80021CF2000F07EF855
:1039D0000021A12000F07AF80021C82000F076F83C
:1039E0000021A62000F072F80021A82000F06EF857
:1039F00000213F2000F06AF80021D32000F066F893
:103A00000021084600F062F80021D52000F05EF8A1
:103A10000021802000F05AF80021D92000F056F84B
:103A20000021F12000F052F80021DA2000F04EF8D9
:103A30000021122000F04AF80021DB2000F046F8B7
:103A40000021402000F042F80021202000F03EF844
:103A50000021022000F03AF800218D2000F036F815
:103A60000021142000F032F80021A42000F02EF8EC
:103A70000021A62000F02AF80021AF2000F026F84F
:103A80000021AF2000F022F80020FFF759FF0021AD
:103A9000BDE81040084600F003B80000000C0140EB
:103AA00010B5801CC4B2B031C8B2002100F00EF8CD
:103AB000102040EA1410002100F008F804F0F00093
:103AC000BDE81040002100F001B8000013B5074820
:103AD00009B1012200E000221021FDF7B7FF0A23FF
:103AE000012269460248FEF7E9FB1CBD000C0140BB
:103AF000DC0100202DE9F0470446DDE90801154608
:103B00001E460022414BFCF768FC0022404BFCF7AC
:103B100064FC4FF033323F4BFCF7EDFB3E4A3F4B2A
:103B2000FCF7E9FB2A463346FCF7E2FB07468846EA
:103B3000D4E90E013A464346FCF736FBC4E90E01D0
:103B40002278920713D5D4E90A2321F00041FCF72B
:103B500007FD0CD2D4E90E0100221346FCF700FD4C
:103B6000D4E90A0101D381F00041C4E90E01D4E98E
:103B7000102338464146FCF7B8FB02460B4604F1D9
:103B80004800FFF7ADFDD4E90623FCF7B4FB8146FE
:103B90008A46D4E90401D4E90E23FCF7ACFB0546C0
:103BA0000E46D4E902013A464346FCF7A4FB2A46F6
:103BB0003346FCF7F9FA4A465346FCF7F5FA054650
:103BC00020780E46400715D5D4E90C23284626F068
:103BD0000041FCF7C5FC0DD20022134628463146B1
:103BE000FCF7BEFC02D2D4E90C5603E0D4E90C5039
:103BF00080F00046C4E910782078C00703D028463A
:103C00003146BDE8F08700200146FAE70000424057
:103C100000004E40333317401F85EB51B81E09405A
:103C2000000000000000000001020304060708096C
:103C30000000000001020304583C000800000020BE
:103C400084000000C0360008DC3C0008840000202E
:103C5000EC0C0000D03600080000000000A24A046E
:103C60000000000000000000000000000000000054
:103C70000000000000000000000000000000000044
:103C80000000000000000000000200000000000032
:103C9000000000000000000008000000000000001C
:103CA00000000000FF010000000000000000000014
:103CB00000000000080000000000000000000000FC
:103CC00000000000000000000000000000000000F4
:0C3CD000000000000000000000000000E8
:04000005080001519D
:00000001FF
